{
	"Dutch Action Sales.sol": {
		"DutchAuction": {
			"abi": [
				{
					"inputs": [
						{
							"internalType": "uint256",
							"name": "_startingPrice",
							"type": "uint256"
						},
						{
							"internalType": "uint256",
							"name": "_discountRate",
							"type": "uint256"
						},
						{
							"internalType": "address",
							"name": "_nft",
							"type": "address"
						},
						{
							"internalType": "uint256",
							"name": "_nftId",
							"type": "uint256"
						}
					],
					"stateMutability": "nonpayable",
					"type": "constructor"
				},
				{
					"inputs": [],
					"name": "buy",
					"outputs": [],
					"stateMutability": "payable",
					"type": "function"
				},
				{
					"inputs": [],
					"name": "discountRate",
					"outputs": [
						{
							"internalType": "uint256",
							"name": "",
							"type": "uint256"
						}
					],
					"stateMutability": "view",
					"type": "function"
				},
				{
					"inputs": [],
					"name": "expiresAt",
					"outputs": [
						{
							"internalType": "uint256",
							"name": "",
							"type": "uint256"
						}
					],
					"stateMutability": "view",
					"type": "function"
				},
				{
					"inputs": [],
					"name": "getPrice",
					"outputs": [
						{
							"internalType": "uint256",
							"name": "",
							"type": "uint256"
						}
					],
					"stateMutability": "view",
					"type": "function"
				},
				{
					"inputs": [],
					"name": "nft",
					"outputs": [
						{
							"internalType": "contract IERC721",
							"name": "",
							"type": "address"
						}
					],
					"stateMutability": "view",
					"type": "function"
				},
				{
					"inputs": [],
					"name": "nftId",
					"outputs": [
						{
							"internalType": "uint256",
							"name": "",
							"type": "uint256"
						}
					],
					"stateMutability": "view",
					"type": "function"
				},
				{
					"inputs": [],
					"name": "seller",
					"outputs": [
						{
							"internalType": "address payable",
							"name": "",
							"type": "address"
						}
					],
					"stateMutability": "view",
					"type": "function"
				},
				{
					"inputs": [],
					"name": "startAt",
					"outputs": [
						{
							"internalType": "uint256",
							"name": "",
							"type": "uint256"
						}
					],
					"stateMutability": "view",
					"type": "function"
				},
				{
					"inputs": [],
					"name": "startingPrice",
					"outputs": [
						{
							"internalType": "uint256",
							"name": "",
							"type": "uint256"
						}
					],
					"stateMutability": "view",
					"type": "function"
				}
			],
			"devdoc": {
				"kind": "dev",
				"methods": {},
				"version": 1
			},
			"evm": {
				"assembly": "    /* \"Dutch Action Sales.sol\":188:1613  contract DutchAuction {... */\n  mstore(0x40, 0x0160)\n    /* \"Dutch Action Sales.sol\":530:994  constructor(... */\n  callvalue\n  dup1\n  iszero\n  tag_1\n  jumpi\n  0x00\n  dup1\n  revert\ntag_1:\n  pop\n  mload(0x40)\n  sub(codesize, bytecodeSize)\n  dup1\n  bytecodeSize\n  dup4\n  codecopy\n  dup2\n  dup2\n  add\n  0x40\n  mstore\n  dup2\n  add\n  swap1\n  tag_2\n  swap2\n  swap1\n  tag_3\n  jump\t// in\ntag_2:\n    /* \"Dutch Action Sales.sol\":675:685  msg.sender */\n  caller\n    /* \"Dutch Action Sales.sol\":658:686  seller = payable(msg.sender) */\n  0xffffffffffffffffffffffffffffffffffffffff\n  and\n  0xc0\n  dup2\n  0xffffffffffffffffffffffffffffffffffffffff\n  and\n  dup2\n  mstore\n  pop\n  pop\n    /* \"Dutch Action Sales.sol\":712:726  _startingPrice */\n  dup4\n    /* \"Dutch Action Sales.sol\":696:726  startingPrice = _startingPrice */\n  0xe0\n  dup2\n  dup2\n  mstore\n  pop\n  pop\n    /* \"Dutch Action Sales.sol\":746:761  block.timestamp */\n  timestamp\n    /* \"Dutch Action Sales.sol\":736:761  startAt = block.timestamp */\n  0x0100\n  dup2\n  dup2\n  mstore\n  pop\n  pop\n    /* \"Dutch Action Sales.sol\":249:256  10 days */\n  0x0d2f00\n    /* \"Dutch Action Sales.sol\":783:798  block.timestamp */\n  timestamp\n    /* \"Dutch Action Sales.sol\":783:809  block.timestamp + DURATION */\n  tag_6\n  swap2\n  swap1\n  tag_7\n  jump\t// in\ntag_6:\n    /* \"Dutch Action Sales.sol\":771:809  expiresAt = block.timestamp + DURATION */\n  0x0120\n  dup2\n  dup2\n  mstore\n  pop\n  pop\n    /* \"Dutch Action Sales.sol\":834:847  _discountRate */\n  dup3\n    /* \"Dutch Action Sales.sol\":819:847  discountRate = _discountRate */\n  0x0140\n  dup2\n  dup2\n  mstore\n  pop\n  pop\n    /* \"Dutch Action Sales.sol\":249:256  10 days */\n  0x0d2f00\n    /* \"Dutch Action Sales.sol\":884:897  _discountRate */\n  dup4\n    /* \"Dutch Action Sales.sol\":884:908  _discountRate * DURATION */\n  tag_8\n  swap2\n  swap1\n  tag_9\n  jump\t// in\ntag_8:\n    /* \"Dutch Action Sales.sol\":866:880  _startingPrice */\n  dup5\n    /* \"Dutch Action Sales.sol\":866:908  _startingPrice >= _discountRate * DURATION */\n  lt\n  iszero\n    /* \"Dutch Action Sales.sol\":858:933  require(_startingPrice >= _discountRate * DURATION, \"starting price < min\") */\n  tag_10\n  jumpi\n  mload(0x40)\n  0x08c379a000000000000000000000000000000000000000000000000000000000\n  dup2\n  mstore\n  0x04\n  add\n  tag_11\n  swap1\n  tag_12\n  jump\t// in\ntag_11:\n  mload(0x40)\n  dup1\n  swap2\n  sub\n  swap1\n  revert\ntag_10:\n    /* \"Dutch Action Sales.sol\":958:962  _nft */\n  dup2\n    /* \"Dutch Action Sales.sol\":944:963  nft = IERC721(_nft) */\n  0xffffffffffffffffffffffffffffffffffffffff\n  and\n  0x80\n  dup2\n  0xffffffffffffffffffffffffffffffffffffffff\n  and\n  dup2\n  mstore\n  pop\n  pop\n    /* \"Dutch Action Sales.sol\":981:987  _nftId */\n  dup1\n    /* \"Dutch Action Sales.sol\":973:987  nftId = _nftId */\n  0xa0\n  dup2\n  dup2\n  mstore\n  pop\n  pop\n    /* \"Dutch Action Sales.sol\":530:994  constructor(... */\n  pop\n  pop\n  pop\n  pop\n    /* \"Dutch Action Sales.sol\":188:1613  contract DutchAuction {... */\n  jump(tag_13)\n    /* \"#utility.yul\":88:205   */\ntag_15:\n    /* \"#utility.yul\":197:198   */\n  0x00\n    /* \"#utility.yul\":194:195   */\n  dup1\n    /* \"#utility.yul\":187:199   */\n  revert\n    /* \"#utility.yul\":334:411   */\ntag_17:\n    /* \"#utility.yul\":371:378   */\n  0x00\n    /* \"#utility.yul\":400:405   */\n  dup2\n    /* \"#utility.yul\":389:405   */\n  swap1\n  pop\n    /* \"#utility.yul\":334:411   */\n  swap2\n  swap1\n  pop\n  jump\t// out\n    /* \"#utility.yul\":417:539   */\ntag_18:\n    /* \"#utility.yul\":490:514   */\n  tag_34\n    /* \"#utility.yul\":508:513   */\n  dup2\n    /* \"#utility.yul\":490:514   */\n  tag_17\n  jump\t// in\ntag_34:\n    /* \"#utility.yul\":483:488   */\n  dup2\n    /* \"#utility.yul\":480:515   */\n  eq\n    /* \"#utility.yul\":470:533   */\n  tag_35\n  jumpi\n    /* \"#utility.yul\":529:530   */\n  0x00\n    /* \"#utility.yul\":526:527   */\n  dup1\n    /* \"#utility.yul\":519:531   */\n  revert\n    /* \"#utility.yul\":470:533   */\ntag_35:\n    /* \"#utility.yul\":417:539   */\n  pop\n  jump\t// out\n    /* \"#utility.yul\":545:688   */\ntag_19:\n    /* \"#utility.yul\":602:607   */\n  0x00\n    /* \"#utility.yul\":633:639   */\n  dup2\n    /* \"#utility.yul\":627:640   */\n  mload\n    /* \"#utility.yul\":618:640   */\n  swap1\n  pop\n    /* \"#utility.yul\":649:682   */\n  tag_37\n    /* \"#utility.yul\":676:681   */\n  dup2\n    /* \"#utility.yul\":649:682   */\n  tag_18\n  jump\t// in\ntag_37:\n    /* \"#utility.yul\":545:688   */\n  swap3\n  swap2\n  pop\n  pop\n  jump\t// out\n    /* \"#utility.yul\":694:820   */\ntag_20:\n    /* \"#utility.yul\":731:738   */\n  0x00\n    /* \"#utility.yul\":771:813   */\n  0xffffffffffffffffffffffffffffffffffffffff\n    /* \"#utility.yul\":764:769   */\n  dup3\n    /* \"#utility.yul\":760:814   */\n  and\n    /* \"#utility.yul\":749:814   */\n  swap1\n  pop\n    /* \"#utility.yul\":694:820   */\n  swap2\n  swap1\n  pop\n  jump\t// out\n    /* \"#utility.yul\":826:922   */\ntag_21:\n    /* \"#utility.yul\":863:870   */\n  0x00\n    /* \"#utility.yul\":892:916   */\n  tag_40\n    /* \"#utility.yul\":910:915   */\n  dup3\n    /* \"#utility.yul\":892:916   */\n  tag_20\n  jump\t// in\ntag_40:\n    /* \"#utility.yul\":881:916   */\n  swap1\n  pop\n    /* \"#utility.yul\":826:922   */\n  swap2\n  swap1\n  pop\n  jump\t// out\n    /* \"#utility.yul\":928:1050   */\ntag_22:\n    /* \"#utility.yul\":1001:1025   */\n  tag_42\n    /* \"#utility.yul\":1019:1024   */\n  dup2\n    /* \"#utility.yul\":1001:1025   */\n  tag_21\n  jump\t// in\ntag_42:\n    /* \"#utility.yul\":994:999   */\n  dup2\n    /* \"#utility.yul\":991:1026   */\n  eq\n    /* \"#utility.yul\":981:1044   */\n  tag_43\n  jumpi\n    /* \"#utility.yul\":1040:1041   */\n  0x00\n    /* \"#utility.yul\":1037:1038   */\n  dup1\n    /* \"#utility.yul\":1030:1042   */\n  revert\n    /* \"#utility.yul\":981:1044   */\ntag_43:\n    /* \"#utility.yul\":928:1050   */\n  pop\n  jump\t// out\n    /* \"#utility.yul\":1056:1199   */\ntag_23:\n    /* \"#utility.yul\":1113:1118   */\n  0x00\n    /* \"#utility.yul\":1144:1150   */\n  dup2\n    /* \"#utility.yul\":1138:1151   */\n  mload\n    /* \"#utility.yul\":1129:1151   */\n  swap1\n  pop\n    /* \"#utility.yul\":1160:1193   */\n  tag_45\n    /* \"#utility.yul\":1187:1192   */\n  dup2\n    /* \"#utility.yul\":1160:1193   */\n  tag_22\n  jump\t// in\ntag_45:\n    /* \"#utility.yul\":1056:1199   */\n  swap3\n  swap2\n  pop\n  pop\n  jump\t// out\n    /* \"#utility.yul\":1205:2025   */\ntag_3:\n    /* \"#utility.yul\":1302:1308   */\n  0x00\n    /* \"#utility.yul\":1310:1316   */\n  dup1\n    /* \"#utility.yul\":1318:1324   */\n  0x00\n    /* \"#utility.yul\":1326:1332   */\n  dup1\n    /* \"#utility.yul\":1375:1378   */\n  0x80\n    /* \"#utility.yul\":1363:1372   */\n  dup6\n    /* \"#utility.yul\":1354:1361   */\n  dup8\n    /* \"#utility.yul\":1350:1373   */\n  sub\n    /* \"#utility.yul\":1346:1379   */\n  slt\n    /* \"#utility.yul\":1343:1463   */\n  iszero\n  tag_47\n  jumpi\n    /* \"#utility.yul\":1382:1461   */\n  tag_48\n  tag_15\n  jump\t// in\ntag_48:\n    /* \"#utility.yul\":1343:1463   */\ntag_47:\n    /* \"#utility.yul\":1502:1503   */\n  0x00\n    /* \"#utility.yul\":1527:1591   */\n  tag_49\n    /* \"#utility.yul\":1583:1590   */\n  dup8\n    /* \"#utility.yul\":1574:1580   */\n  dup3\n    /* \"#utility.yul\":1563:1572   */\n  dup9\n    /* \"#utility.yul\":1559:1581   */\n  add\n    /* \"#utility.yul\":1527:1591   */\n  tag_19\n  jump\t// in\ntag_49:\n    /* \"#utility.yul\":1517:1591   */\n  swap5\n  pop\n    /* \"#utility.yul\":1473:1601   */\n  pop\n    /* \"#utility.yul\":1640:1642   */\n  0x20\n    /* \"#utility.yul\":1666:1730   */\n  tag_50\n    /* \"#utility.yul\":1722:1729   */\n  dup8\n    /* \"#utility.yul\":1713:1719   */\n  dup3\n    /* \"#utility.yul\":1702:1711   */\n  dup9\n    /* \"#utility.yul\":1698:1720   */\n  add\n    /* \"#utility.yul\":1666:1730   */\n  tag_19\n  jump\t// in\ntag_50:\n    /* \"#utility.yul\":1656:1730   */\n  swap4\n  pop\n    /* \"#utility.yul\":1611:1740   */\n  pop\n    /* \"#utility.yul\":1779:1781   */\n  0x40\n    /* \"#utility.yul\":1805:1869   */\n  tag_51\n    /* \"#utility.yul\":1861:1868   */\n  dup8\n    /* \"#utility.yul\":1852:1858   */\n  dup3\n    /* \"#utility.yul\":1841:1850   */\n  dup9\n    /* \"#utility.yul\":1837:1859   */\n  add\n    /* \"#utility.yul\":1805:1869   */\n  tag_23\n  jump\t// in\ntag_51:\n    /* \"#utility.yul\":1795:1869   */\n  swap3\n  pop\n    /* \"#utility.yul\":1750:1879   */\n  pop\n    /* \"#utility.yul\":1918:1920   */\n  0x60\n    /* \"#utility.yul\":1944:2008   */\n  tag_52\n    /* \"#utility.yul\":2000:2007   */\n  dup8\n    /* \"#utility.yul\":1991:1997   */\n  dup3\n    /* \"#utility.yul\":1980:1989   */\n  dup9\n    /* \"#utility.yul\":1976:1998   */\n  add\n    /* \"#utility.yul\":1944:2008   */\n  tag_19\n  jump\t// in\ntag_52:\n    /* \"#utility.yul\":1934:2008   */\n  swap2\n  pop\n    /* \"#utility.yul\":1889:2018   */\n  pop\n    /* \"#utility.yul\":1205:2025   */\n  swap3\n  swap6\n  swap2\n  swap5\n  pop\n  swap3\n  pop\n  jump\t// out\n    /* \"#utility.yul\":2031:2211   */\ntag_24:\n    /* \"#utility.yul\":2079:2156   */\n  0x4e487b7100000000000000000000000000000000000000000000000000000000\n    /* \"#utility.yul\":2076:2077   */\n  0x00\n    /* \"#utility.yul\":2069:2157   */\n  mstore\n    /* \"#utility.yul\":2176:2180   */\n  0x11\n    /* \"#utility.yul\":2173:2174   */\n  0x04\n    /* \"#utility.yul\":2166:2181   */\n  mstore\n    /* \"#utility.yul\":2200:2204   */\n  0x24\n    /* \"#utility.yul\":2197:2198   */\n  0x00\n    /* \"#utility.yul\":2190:2205   */\n  revert\n    /* \"#utility.yul\":2217:2408   */\ntag_7:\n    /* \"#utility.yul\":2257:2260   */\n  0x00\n    /* \"#utility.yul\":2276:2296   */\n  tag_55\n    /* \"#utility.yul\":2294:2295   */\n  dup3\n    /* \"#utility.yul\":2276:2296   */\n  tag_17\n  jump\t// in\ntag_55:\n    /* \"#utility.yul\":2271:2296   */\n  swap2\n  pop\n    /* \"#utility.yul\":2310:2330   */\n  tag_56\n    /* \"#utility.yul\":2328:2329   */\n  dup4\n    /* \"#utility.yul\":2310:2330   */\n  tag_17\n  jump\t// in\ntag_56:\n    /* \"#utility.yul\":2305:2330   */\n  swap3\n  pop\n    /* \"#utility.yul\":2353:2354   */\n  dup3\n    /* \"#utility.yul\":2350:2351   */\n  dup3\n    /* \"#utility.yul\":2346:2355   */\n  add\n    /* \"#utility.yul\":2339:2355   */\n  swap1\n  pop\n    /* \"#utility.yul\":2374:2377   */\n  dup1\n    /* \"#utility.yul\":2371:2372   */\n  dup3\n    /* \"#utility.yul\":2368:2378   */\n  gt\n    /* \"#utility.yul\":2365:2401   */\n  iszero\n  tag_57\n  jumpi\n    /* \"#utility.yul\":2381:2399   */\n  tag_58\n  tag_24\n  jump\t// in\ntag_58:\n    /* \"#utility.yul\":2365:2401   */\ntag_57:\n    /* \"#utility.yul\":2217:2408   */\n  swap3\n  swap2\n  pop\n  pop\n  jump\t// out\n    /* \"#utility.yul\":2414:2762   */\ntag_9:\n    /* \"#utility.yul\":2454:2461   */\n  0x00\n    /* \"#utility.yul\":2477:2497   */\n  tag_60\n    /* \"#utility.yul\":2495:2496   */\n  dup3\n    /* \"#utility.yul\":2477:2497   */\n  tag_17\n  jump\t// in\ntag_60:\n    /* \"#utility.yul\":2472:2497   */\n  swap2\n  pop\n    /* \"#utility.yul\":2511:2531   */\n  tag_61\n    /* \"#utility.yul\":2529:2530   */\n  dup4\n    /* \"#utility.yul\":2511:2531   */\n  tag_17\n  jump\t// in\ntag_61:\n    /* \"#utility.yul\":2506:2531   */\n  swap3\n  pop\n    /* \"#utility.yul\":2699:2700   */\n  dup2\n    /* \"#utility.yul\":2631:2697   */\n  0xffffffffffffffffffffffffffffffffffffffffffffffffffffffffffffffff\n    /* \"#utility.yul\":2627:2701   */\n  div\n    /* \"#utility.yul\":2624:2625   */\n  dup4\n    /* \"#utility.yul\":2621:2702   */\n  gt\n    /* \"#utility.yul\":2616:2617   */\n  dup3\n    /* \"#utility.yul\":2609:2618   */\n  iszero\n    /* \"#utility.yul\":2602:2619   */\n  iszero\n    /* \"#utility.yul\":2598:2703   */\n  and\n    /* \"#utility.yul\":2595:2726   */\n  iszero\n  tag_62\n  jumpi\n    /* \"#utility.yul\":2706:2724   */\n  tag_63\n  tag_24\n  jump\t// in\ntag_63:\n    /* \"#utility.yul\":2595:2726   */\ntag_62:\n    /* \"#utility.yul\":2754:2755   */\n  dup3\n    /* \"#utility.yul\":2751:2752   */\n  dup3\n    /* \"#utility.yul\":2747:2756   */\n  mul\n    /* \"#utility.yul\":2736:2756   */\n  swap1\n  pop\n    /* \"#utility.yul\":2414:2762   */\n  swap3\n  swap2\n  pop\n  pop\n  jump\t// out\n    /* \"#utility.yul\":2768:2937   */\ntag_25:\n    /* \"#utility.yul\":2852:2863   */\n  0x00\n    /* \"#utility.yul\":2886:2892   */\n  dup3\n    /* \"#utility.yul\":2881:2884   */\n  dup3\n    /* \"#utility.yul\":2874:2893   */\n  mstore\n    /* \"#utility.yul\":2926:2930   */\n  0x20\n    /* \"#utility.yul\":2921:2924   */\n  dup3\n    /* \"#utility.yul\":2917:2931   */\n  add\n    /* \"#utility.yul\":2902:2931   */\n  swap1\n  pop\n    /* \"#utility.yul\":2768:2937   */\n  swap3\n  swap2\n  pop\n  pop\n  jump\t// out\n    /* \"#utility.yul\":2943:3113   */\ntag_26:\n    /* \"#utility.yul\":3083:3105   */\n  0x7374617274696e67207072696365203c206d696e000000000000000000000000\n    /* \"#utility.yul\":3079:3080   */\n  0x00\n    /* \"#utility.yul\":3071:3077   */\n  dup3\n    /* \"#utility.yul\":3067:3081   */\n  add\n    /* \"#utility.yul\":3060:3106   */\n  mstore\n    /* \"#utility.yul\":2943:3113   */\n  pop\n  jump\t// out\n    /* \"#utility.yul\":3119:3485   */\ntag_27:\n    /* \"#utility.yul\":3261:3264   */\n  0x00\n    /* \"#utility.yul\":3282:3349   */\n  tag_67\n    /* \"#utility.yul\":3346:3348   */\n  0x14\n    /* \"#utility.yul\":3341:3344   */\n  dup4\n    /* \"#utility.yul\":3282:3349   */\n  tag_25\n  jump\t// in\ntag_67:\n    /* \"#utility.yul\":3275:3349   */\n  swap2\n  pop\n    /* \"#utility.yul\":3358:3451   */\n  tag_68\n    /* \"#utility.yul\":3447:3450   */\n  dup3\n    /* \"#utility.yul\":3358:3451   */\n  tag_26\n  jump\t// in\ntag_68:\n    /* \"#utility.yul\":3476:3478   */\n  0x20\n    /* \"#utility.yul\":3471:3474   */\n  dup3\n    /* \"#utility.yul\":3467:3479   */\n  add\n    /* \"#utility.yul\":3460:3479   */\n  swap1\n  pop\n    /* \"#utility.yul\":3119:3485   */\n  swap2\n  swap1\n  pop\n  jump\t// out\n    /* \"#utility.yul\":3491:3910   */\ntag_12:\n    /* \"#utility.yul\":3657:3661   */\n  0x00\n    /* \"#utility.yul\":3695:3697   */\n  0x20\n    /* \"#utility.yul\":3684:3693   */\n  dup3\n    /* \"#utility.yul\":3680:3698   */\n  add\n    /* \"#utility.yul\":3672:3698   */\n  swap1\n  pop\n    /* \"#utility.yul\":3744:3753   */\n  dup2\n    /* \"#utility.yul\":3738:3742   */\n  dup2\n    /* \"#utility.yul\":3734:3754   */\n  sub\n    /* \"#utility.yul\":3730:3731   */\n  0x00\n    /* \"#utility.yul\":3719:3728   */\n  dup4\n    /* \"#utility.yul\":3715:3732   */\n  add\n    /* \"#utility.yul\":3708:3755   */\n  mstore\n    /* \"#utility.yul\":3772:3903   */\n  tag_70\n    /* \"#utility.yul\":3898:3902   */\n  dup2\n    /* \"#utility.yul\":3772:3903   */\n  tag_27\n  jump\t// in\ntag_70:\n    /* \"#utility.yul\":3764:3903   */\n  swap1\n  pop\n    /* \"#utility.yul\":3491:3910   */\n  swap2\n  swap1\n  pop\n  jump\t// out\n    /* \"Dutch Action Sales.sol\":188:1613  contract DutchAuction {... */\ntag_13:\n  mload(0x80)\n  mload(0xa0)\n  mload(0xc0)\n  mload(0xe0)\n  mload(0x0100)\n  mload(0x0120)\n  mload(0x0140)\n  codecopy(0x00, dataOffset(sub_0), dataSize(sub_0))\n  0x00\n  assignImmutable(\"0x7749cc8014201da2069c21d93ba99c584b6f62d393fde534ed47eac227e31561\")\n  0x00\n  assignImmutable(\"0x58a280f74f57bf051c40f060139dc747e015be52f68c57e2c4ab2e4bd4146f43\")\n  0x00\n  assignImmutable(\"0x81e080ffc23e8b8d44dd829bc823229e92b893eb1d8f624419d3f5682eb97fc3\")\n  0x00\n  assignImmutable(\"0x1572b593c53d839d80004aa4b8c51211864104f06ace9e22be9c4365b50655ea\")\n  0x00\n  assignImmutable(\"0xf4c2b5de886427473655d4c904c743576dc2d53249b7535d96c06cc97ae7216b\")\n  0x00\n  assignImmutable(\"0x939eb54753ed0cc7e2272bfb34cbe098308c93936ed54d79078f76ade0b2e789\")\n  0x00\n  assignImmutable(\"0x8e8fab5f003314da8d1873ea7720e8d9f47650136d916064d1edb8a11d682624\")\n  return(0x00, dataSize(sub_0))\nstop\n\nsub_0: assembly {\n        /* \"Dutch Action Sales.sol\":188:1613  contract DutchAuction {... */\n      mstore(0x40, 0x80)\n      jumpi(tag_1, lt(calldatasize, 0x04))\n      shr(0xe0, calldataload(0x00))\n      dup1\n      0xa6f2ae3a\n      gt\n      tag_11\n      jumpi\n      dup1\n      0xa6f2ae3a\n      eq\n      tag_6\n      jumpi\n      dup1\n      0xc6bc5182\n      eq\n      tag_7\n      jumpi\n      dup1\n      0xc7446565\n      eq\n      tag_8\n      jumpi\n      dup1\n      0xd6fbf202\n      eq\n      tag_9\n      jumpi\n      dup1\n      0xe6c0e6d5\n      eq\n      tag_10\n      jumpi\n      jump(tag_1)\n    tag_11:\n      dup1\n      0x08551a53\n      eq\n      tag_2\n      jumpi\n      dup1\n      0x47ccca02\n      eq\n      tag_3\n      jumpi\n      dup1\n      0x8622a689\n      eq\n      tag_4\n      jumpi\n      dup1\n      0x98d5fdca\n      eq\n      tag_5\n      jumpi\n    tag_1:\n      0x00\n      dup1\n      revert\n        /* \"Dutch Action Sales.sol\":331:370  address payable public immutable seller */\n    tag_2:\n      callvalue\n      dup1\n      iszero\n      tag_12\n      jumpi\n      0x00\n      dup1\n      revert\n    tag_12:\n      pop\n      tag_13\n      tag_14\n      jump\t// in\n    tag_13:\n      mload(0x40)\n      tag_15\n      swap2\n      swap1\n      tag_16\n      jump\t// in\n    tag_15:\n      mload(0x40)\n      dup1\n      swap2\n      sub\n      swap1\n      return\n        /* \"Dutch Action Sales.sol\":263:291  IERC721 public immutable nft */\n    tag_3:\n      callvalue\n      dup1\n      iszero\n      tag_17\n      jumpi\n      0x00\n      dup1\n      revert\n    tag_17:\n      pop\n      tag_18\n      tag_19\n      jump\t// in\n    tag_18:\n      mload(0x40)\n      tag_20\n      swap2\n      swap1\n      tag_21\n      jump\t// in\n    tag_20:\n      mload(0x40)\n      dup1\n      swap2\n      sub\n      swap1\n      return\n        /* \"Dutch Action Sales.sol\":452:483  uint public immutable expiresAt */\n    tag_4:\n      callvalue\n      dup1\n      iszero\n      tag_22\n      jumpi\n      0x00\n      dup1\n      revert\n    tag_22:\n      pop\n      tag_23\n      tag_24\n      jump\t// in\n    tag_23:\n      mload(0x40)\n      tag_25\n      swap2\n      swap1\n      tag_26\n      jump\t// in\n    tag_25:\n      mload(0x40)\n      dup1\n      swap2\n      sub\n      swap1\n      return\n        /* \"Dutch Action Sales.sol\":1000:1204  function getPrice() public view returns (uint) {... */\n    tag_5:\n      callvalue\n      dup1\n      iszero\n      tag_27\n      jumpi\n      0x00\n      dup1\n      revert\n    tag_27:\n      pop\n      tag_28\n      tag_29\n      jump\t// in\n    tag_28:\n      mload(0x40)\n      tag_30\n      swap2\n      swap1\n      tag_26\n      jump\t// in\n    tag_30:\n      mload(0x40)\n      dup1\n      swap2\n      sub\n      swap1\n      return\n        /* \"Dutch Action Sales.sol\":1210:1611  function buy() external payable {... */\n    tag_6:\n      tag_31\n      tag_32\n      jump\t// in\n    tag_31:\n      stop\n        /* \"Dutch Action Sales.sol\":297:324  uint public immutable nftId */\n    tag_7:\n      callvalue\n      dup1\n      iszero\n      tag_33\n      jumpi\n      0x00\n      dup1\n      revert\n    tag_33:\n      pop\n      tag_34\n      tag_35\n      jump\t// in\n    tag_34:\n      mload(0x40)\n      tag_36\n      swap2\n      swap1\n      tag_26\n      jump\t// in\n    tag_36:\n      mload(0x40)\n      dup1\n      swap2\n      sub\n      swap1\n      return\n        /* \"Dutch Action Sales.sol\":417:446  uint public immutable startAt */\n    tag_8:\n      callvalue\n      dup1\n      iszero\n      tag_37\n      jumpi\n      0x00\n      dup1\n      revert\n    tag_37:\n      pop\n      tag_38\n      tag_39\n      jump\t// in\n    tag_38:\n      mload(0x40)\n      tag_40\n      swap2\n      swap1\n      tag_26\n      jump\t// in\n    tag_40:\n      mload(0x40)\n      dup1\n      swap2\n      sub\n      swap1\n      return\n        /* \"Dutch Action Sales.sol\":376:411  uint public immutable startingPrice */\n    tag_9:\n      callvalue\n      dup1\n      iszero\n      tag_41\n      jumpi\n      0x00\n      dup1\n      revert\n    tag_41:\n      pop\n      tag_42\n      tag_43\n      jump\t// in\n    tag_42:\n      mload(0x40)\n      tag_44\n      swap2\n      swap1\n      tag_26\n      jump\t// in\n    tag_44:\n      mload(0x40)\n      dup1\n      swap2\n      sub\n      swap1\n      return\n        /* \"Dutch Action Sales.sol\":489:523  uint public immutable discountRate */\n    tag_10:\n      callvalue\n      dup1\n      iszero\n      tag_45\n      jumpi\n      0x00\n      dup1\n      revert\n    tag_45:\n      pop\n      tag_46\n      tag_47\n      jump\t// in\n    tag_46:\n      mload(0x40)\n      tag_48\n      swap2\n      swap1\n      tag_26\n      jump\t// in\n    tag_48:\n      mload(0x40)\n      dup1\n      swap2\n      sub\n      swap1\n      return\n        /* \"Dutch Action Sales.sol\":331:370  address payable public immutable seller */\n    tag_14:\n      immutable(\"0xf4c2b5de886427473655d4c904c743576dc2d53249b7535d96c06cc97ae7216b\")\n      dup2\n      jump\t// out\n        /* \"Dutch Action Sales.sol\":263:291  IERC721 public immutable nft */\n    tag_19:\n      immutable(\"0x8e8fab5f003314da8d1873ea7720e8d9f47650136d916064d1edb8a11d682624\")\n      dup2\n      jump\t// out\n        /* \"Dutch Action Sales.sol\":452:483  uint public immutable expiresAt */\n    tag_24:\n      immutable(\"0x58a280f74f57bf051c40f060139dc747e015be52f68c57e2c4ab2e4bd4146f43\")\n      dup2\n      jump\t// out\n        /* \"Dutch Action Sales.sol\":1000:1204  function getPrice() public view returns (uint) {... */\n    tag_29:\n        /* \"Dutch Action Sales.sol\":1041:1045  uint */\n      0x00\n        /* \"Dutch Action Sales.sol\":1057:1073  uint timeElapsed */\n      dup1\n        /* \"Dutch Action Sales.sol\":1095:1102  startAt */\n      immutable(\"0x81e080ffc23e8b8d44dd829bc823229e92b893eb1d8f624419d3f5682eb97fc3\")\n        /* \"Dutch Action Sales.sol\":1077:1092  block.timestamp */\n      timestamp\n        /* \"Dutch Action Sales.sol\":1077:1102  block.timestamp - startAt */\n      tag_50\n      swap2\n      swap1\n      tag_51\n      jump\t// in\n    tag_50:\n        /* \"Dutch Action Sales.sol\":1057:1103  uint timeElapsed = (block.timestamp - startAt) */\n      swap1\n      pop\n        /* \"Dutch Action Sales.sol\":1114:1127  uint discount */\n      0x00\n        /* \"Dutch Action Sales.sol\":1145:1156  timeElapsed */\n      dup2\n        /* \"Dutch Action Sales.sol\":1130:1142  discountRate */\n      immutable(\"0x7749cc8014201da2069c21d93ba99c584b6f62d393fde534ed47eac227e31561\")\n        /* \"Dutch Action Sales.sol\":1130:1156  discountRate * timeElapsed */\n      tag_52\n      swap2\n      swap1\n      tag_53\n      jump\t// in\n    tag_52:\n        /* \"Dutch Action Sales.sol\":1114:1156  uint discount = discountRate * timeElapsed */\n      swap1\n      pop\n        /* \"Dutch Action Sales.sol\":1189:1197  discount */\n      dup1\n        /* \"Dutch Action Sales.sol\":1173:1186  startingPrice */\n      immutable(\"0x1572b593c53d839d80004aa4b8c51211864104f06ace9e22be9c4365b50655ea\")\n        /* \"Dutch Action Sales.sol\":1173:1197  startingPrice - discount */\n      tag_54\n      swap2\n      swap1\n      tag_51\n      jump\t// in\n    tag_54:\n        /* \"Dutch Action Sales.sol\":1166:1197  return startingPrice - discount */\n      swap3\n      pop\n      pop\n      pop\n        /* \"Dutch Action Sales.sol\":1000:1204  function getPrice() public view returns (uint) {... */\n      swap1\n      jump\t// out\n        /* \"Dutch Action Sales.sol\":1210:1611  function buy() external payable {... */\n    tag_32:\n        /* \"Dutch Action Sales.sol\":1278:1287  expiresAt */\n      immutable(\"0x58a280f74f57bf051c40f060139dc747e015be52f68c57e2c4ab2e4bd4146f43\")\n        /* \"Dutch Action Sales.sol\":1260:1275  block.timestamp */\n      timestamp\n        /* \"Dutch Action Sales.sol\":1260:1287  block.timestamp < expiresAt */\n      lt\n        /* \"Dutch Action Sales.sol\":1252:1307  require(block.timestamp < expiresAt, \"auction expired\") */\n      tag_56\n      jumpi\n      mload(0x40)\n      0x08c379a000000000000000000000000000000000000000000000000000000000\n      dup2\n      mstore\n      0x04\n      add\n      tag_57\n      swap1\n      tag_58\n      jump\t// in\n    tag_57:\n      mload(0x40)\n      dup1\n      swap2\n      sub\n      swap1\n      revert\n    tag_56:\n        /* \"Dutch Action Sales.sol\":1318:1328  uint price */\n      0x00\n        /* \"Dutch Action Sales.sol\":1331:1341  getPrice() */\n      tag_59\n        /* \"Dutch Action Sales.sol\":1331:1339  getPrice */\n      tag_29\n        /* \"Dutch Action Sales.sol\":1331:1341  getPrice() */\n      jump\t// in\n    tag_59:\n        /* \"Dutch Action Sales.sol\":1318:1341  uint price = getPrice() */\n      swap1\n      pop\n        /* \"Dutch Action Sales.sol\":1372:1377  price */\n      dup1\n        /* \"Dutch Action Sales.sol\":1359:1368  msg.value */\n      callvalue\n        /* \"Dutch Action Sales.sol\":1359:1377  msg.value >= price */\n      lt\n      iszero\n        /* \"Dutch Action Sales.sol\":1351:1393  require(msg.value >= price, \"ETH < price\") */\n      tag_60\n      jumpi\n      mload(0x40)\n      0x08c379a000000000000000000000000000000000000000000000000000000000\n      dup2\n      mstore\n      0x04\n      add\n      tag_61\n      swap1\n      tag_62\n      jump\t// in\n    tag_61:\n      mload(0x40)\n      dup1\n      swap2\n      sub\n      swap1\n      revert\n    tag_60:\n        /* \"Dutch Action Sales.sol\":1404:1407  nft */\n      immutable(\"0x8e8fab5f003314da8d1873ea7720e8d9f47650136d916064d1edb8a11d682624\")\n        /* \"Dutch Action Sales.sol\":1404:1420  nft.transferFrom */\n      0xffffffffffffffffffffffffffffffffffffffff\n      and\n      0x23b872dd\n        /* \"Dutch Action Sales.sol\":1421:1427  seller */\n      immutable(\"0xf4c2b5de886427473655d4c904c743576dc2d53249b7535d96c06cc97ae7216b\")\n        /* \"Dutch Action Sales.sol\":1429:1439  msg.sender */\n      caller\n        /* \"Dutch Action Sales.sol\":1441:1446  nftId */\n      immutable(\"0x939eb54753ed0cc7e2272bfb34cbe098308c93936ed54d79078f76ade0b2e789\")\n        /* \"Dutch Action Sales.sol\":1404:1447  nft.transferFrom(seller, msg.sender, nftId) */\n      mload(0x40)\n      dup5\n      0xffffffff\n      and\n      0xe0\n      shl\n      dup2\n      mstore\n      0x04\n      add\n      tag_63\n      swap4\n      swap3\n      swap2\n      swap1\n      tag_64\n      jump\t// in\n    tag_63:\n      0x00\n      mload(0x40)\n      dup1\n      dup4\n      sub\n      dup2\n      0x00\n      dup8\n      dup1\n      extcodesize\n      iszero\n      dup1\n      iszero\n      tag_65\n      jumpi\n      0x00\n      dup1\n      revert\n    tag_65:\n      pop\n      gas\n      call\n      iszero\n      dup1\n      iszero\n      tag_67\n      jumpi\n      returndatasize\n      0x00\n      dup1\n      returndatacopy\n      revert(0x00, returndatasize)\n    tag_67:\n      pop\n      pop\n      pop\n      pop\n        /* \"Dutch Action Sales.sol\":1457:1468  uint refund */\n      0x00\n        /* \"Dutch Action Sales.sol\":1483:1488  price */\n      dup2\n        /* \"Dutch Action Sales.sol\":1471:1480  msg.value */\n      callvalue\n        /* \"Dutch Action Sales.sol\":1471:1488  msg.value - price */\n      tag_68\n      swap2\n      swap1\n      tag_51\n      jump\t// in\n    tag_68:\n        /* \"Dutch Action Sales.sol\":1457:1488  uint refund = msg.value - price */\n      swap1\n      pop\n        /* \"Dutch Action Sales.sol\":1511:1512  0 */\n      0x00\n        /* \"Dutch Action Sales.sol\":1502:1508  refund */\n      dup2\n        /* \"Dutch Action Sales.sol\":1502:1512  refund > 0 */\n      gt\n        /* \"Dutch Action Sales.sol\":1498:1575  if (refund > 0) {... */\n      iszero\n      tag_69\n      jumpi\n        /* \"Dutch Action Sales.sol\":1536:1546  msg.sender */\n      caller\n        /* \"Dutch Action Sales.sol\":1528:1556  payable(msg.sender).transfer */\n      0xffffffffffffffffffffffffffffffffffffffff\n      and\n        /* \"Dutch Action Sales.sol\":1528:1564  payable(msg.sender).transfer(refund) */\n      0x08fc\n        /* \"Dutch Action Sales.sol\":1557:1563  refund */\n      dup3\n        /* \"Dutch Action Sales.sol\":1528:1564  payable(msg.sender).transfer(refund) */\n      swap1\n      dup2\n      iszero\n      mul\n      swap1\n      mload(0x40)\n      0x00\n      mload(0x40)\n      dup1\n      dup4\n      sub\n      dup2\n      dup6\n      dup9\n      dup9\n      call\n      swap4\n      pop\n      pop\n      pop\n      pop\n      iszero\n      dup1\n      iszero\n      tag_71\n      jumpi\n      returndatasize\n      0x00\n      dup1\n      returndatacopy\n      revert(0x00, returndatasize)\n    tag_71:\n      pop\n        /* \"Dutch Action Sales.sol\":1498:1575  if (refund > 0) {... */\n    tag_69:\n        /* \"Dutch Action Sales.sol\":1597:1603  seller */\n      immutable(\"0xf4c2b5de886427473655d4c904c743576dc2d53249b7535d96c06cc97ae7216b\")\n        /* \"Dutch Action Sales.sol\":1584:1604  selfdestruct(seller) */\n      0xffffffffffffffffffffffffffffffffffffffff\n      and\n      selfdestruct\n        /* \"Dutch Action Sales.sol\":297:324  uint public immutable nftId */\n    tag_35:\n      immutable(\"0x939eb54753ed0cc7e2272bfb34cbe098308c93936ed54d79078f76ade0b2e789\")\n      dup2\n      jump\t// out\n        /* \"Dutch Action Sales.sol\":417:446  uint public immutable startAt */\n    tag_39:\n      immutable(\"0x81e080ffc23e8b8d44dd829bc823229e92b893eb1d8f624419d3f5682eb97fc3\")\n      dup2\n      jump\t// out\n        /* \"Dutch Action Sales.sol\":376:411  uint public immutable startingPrice */\n    tag_43:\n      immutable(\"0x1572b593c53d839d80004aa4b8c51211864104f06ace9e22be9c4365b50655ea\")\n      dup2\n      jump\t// out\n        /* \"Dutch Action Sales.sol\":489:523  uint public immutable discountRate */\n    tag_47:\n      immutable(\"0x7749cc8014201da2069c21d93ba99c584b6f62d393fde534ed47eac227e31561\")\n      dup2\n      jump\t// out\n        /* \"#utility.yul\":7:133   */\n    tag_72:\n        /* \"#utility.yul\":44:51   */\n      0x00\n        /* \"#utility.yul\":84:126   */\n      0xffffffffffffffffffffffffffffffffffffffff\n        /* \"#utility.yul\":77:82   */\n      dup3\n        /* \"#utility.yul\":73:127   */\n      and\n        /* \"#utility.yul\":62:127   */\n      swap1\n      pop\n        /* \"#utility.yul\":7:133   */\n      swap2\n      swap1\n      pop\n      jump\t// out\n        /* \"#utility.yul\":139:243   */\n    tag_73:\n        /* \"#utility.yul\":184:191   */\n      0x00\n        /* \"#utility.yul\":213:237   */\n      tag_95\n        /* \"#utility.yul\":231:236   */\n      dup3\n        /* \"#utility.yul\":213:237   */\n      tag_72\n      jump\t// in\n    tag_95:\n        /* \"#utility.yul\":202:237   */\n      swap1\n      pop\n        /* \"#utility.yul\":139:243   */\n      swap2\n      swap1\n      pop\n      jump\t// out\n        /* \"#utility.yul\":249:391   */\n    tag_74:\n        /* \"#utility.yul\":352:384   */\n      tag_97\n        /* \"#utility.yul\":378:383   */\n      dup2\n        /* \"#utility.yul\":352:384   */\n      tag_73\n      jump\t// in\n    tag_97:\n        /* \"#utility.yul\":347:350   */\n      dup3\n        /* \"#utility.yul\":340:385   */\n      mstore\n        /* \"#utility.yul\":249:391   */\n      pop\n      pop\n      jump\t// out\n        /* \"#utility.yul\":397:651   */\n    tag_16:\n        /* \"#utility.yul\":506:510   */\n      0x00\n        /* \"#utility.yul\":544:546   */\n      0x20\n        /* \"#utility.yul\":533:542   */\n      dup3\n        /* \"#utility.yul\":529:547   */\n      add\n        /* \"#utility.yul\":521:547   */\n      swap1\n      pop\n        /* \"#utility.yul\":557:644   */\n      tag_99\n        /* \"#utility.yul\":641:642   */\n      0x00\n        /* \"#utility.yul\":630:639   */\n      dup4\n        /* \"#utility.yul\":626:643   */\n      add\n        /* \"#utility.yul\":617:623   */\n      dup5\n        /* \"#utility.yul\":557:644   */\n      tag_74\n      jump\t// in\n    tag_99:\n        /* \"#utility.yul\":397:651   */\n      swap3\n      swap2\n      pop\n      pop\n      jump\t// out\n        /* \"#utility.yul\":657:717   */\n    tag_75:\n        /* \"#utility.yul\":685:688   */\n      0x00\n        /* \"#utility.yul\":706:711   */\n      dup2\n        /* \"#utility.yul\":699:711   */\n      swap1\n      pop\n        /* \"#utility.yul\":657:717   */\n      swap2\n      swap1\n      pop\n      jump\t// out\n        /* \"#utility.yul\":723:865   */\n    tag_76:\n        /* \"#utility.yul\":773:782   */\n      0x00\n        /* \"#utility.yul\":806:859   */\n      tag_102\n        /* \"#utility.yul\":824:858   */\n      tag_103\n        /* \"#utility.yul\":833:857   */\n      tag_104\n        /* \"#utility.yul\":851:856   */\n      dup5\n        /* \"#utility.yul\":833:857   */\n      tag_72\n      jump\t// in\n    tag_104:\n        /* \"#utility.yul\":824:858   */\n      tag_75\n      jump\t// in\n    tag_103:\n        /* \"#utility.yul\":806:859   */\n      tag_72\n      jump\t// in\n    tag_102:\n        /* \"#utility.yul\":793:859   */\n      swap1\n      pop\n        /* \"#utility.yul\":723:865   */\n      swap2\n      swap1\n      pop\n      jump\t// out\n        /* \"#utility.yul\":871:997   */\n    tag_77:\n        /* \"#utility.yul\":921:930   */\n      0x00\n        /* \"#utility.yul\":954:991   */\n      tag_106\n        /* \"#utility.yul\":985:990   */\n      dup3\n        /* \"#utility.yul\":954:991   */\n      tag_76\n      jump\t// in\n    tag_106:\n        /* \"#utility.yul\":941:991   */\n      swap1\n      pop\n        /* \"#utility.yul\":871:997   */\n      swap2\n      swap1\n      pop\n      jump\t// out\n        /* \"#utility.yul\":1003:1143   */\n    tag_78:\n        /* \"#utility.yul\":1067:1076   */\n      0x00\n        /* \"#utility.yul\":1100:1137   */\n      tag_108\n        /* \"#utility.yul\":1131:1136   */\n      dup3\n        /* \"#utility.yul\":1100:1137   */\n      tag_77\n      jump\t// in\n    tag_108:\n        /* \"#utility.yul\":1087:1137   */\n      swap1\n      pop\n        /* \"#utility.yul\":1003:1143   */\n      swap2\n      swap1\n      pop\n      jump\t// out\n        /* \"#utility.yul\":1149:1308   */\n    tag_79:\n        /* \"#utility.yul\":1250:1301   */\n      tag_110\n        /* \"#utility.yul\":1295:1300   */\n      dup2\n        /* \"#utility.yul\":1250:1301   */\n      tag_78\n      jump\t// in\n    tag_110:\n        /* \"#utility.yul\":1245:1248   */\n      dup3\n        /* \"#utility.yul\":1238:1302   */\n      mstore\n        /* \"#utility.yul\":1149:1308   */\n      pop\n      pop\n      jump\t// out\n        /* \"#utility.yul\":1314:1564   */\n    tag_21:\n        /* \"#utility.yul\":1421:1425   */\n      0x00\n        /* \"#utility.yul\":1459:1461   */\n      0x20\n        /* \"#utility.yul\":1448:1457   */\n      dup3\n        /* \"#utility.yul\":1444:1462   */\n      add\n        /* \"#utility.yul\":1436:1462   */\n      swap1\n      pop\n        /* \"#utility.yul\":1472:1557   */\n      tag_112\n        /* \"#utility.yul\":1554:1555   */\n      0x00\n        /* \"#utility.yul\":1543:1552   */\n      dup4\n        /* \"#utility.yul\":1539:1556   */\n      add\n        /* \"#utility.yul\":1530:1536   */\n      dup5\n        /* \"#utility.yul\":1472:1557   */\n      tag_79\n      jump\t// in\n    tag_112:\n        /* \"#utility.yul\":1314:1564   */\n      swap3\n      swap2\n      pop\n      pop\n      jump\t// out\n        /* \"#utility.yul\":1570:1647   */\n    tag_80:\n        /* \"#utility.yul\":1607:1614   */\n      0x00\n        /* \"#utility.yul\":1636:1641   */\n      dup2\n        /* \"#utility.yul\":1625:1641   */\n      swap1\n      pop\n        /* \"#utility.yul\":1570:1647   */\n      swap2\n      swap1\n      pop\n      jump\t// out\n        /* \"#utility.yul\":1653:1771   */\n    tag_81:\n        /* \"#utility.yul\":1740:1764   */\n      tag_115\n        /* \"#utility.yul\":1758:1763   */\n      dup2\n        /* \"#utility.yul\":1740:1764   */\n      tag_80\n      jump\t// in\n    tag_115:\n        /* \"#utility.yul\":1735:1738   */\n      dup3\n        /* \"#utility.yul\":1728:1765   */\n      mstore\n        /* \"#utility.yul\":1653:1771   */\n      pop\n      pop\n      jump\t// out\n        /* \"#utility.yul\":1777:1999   */\n    tag_26:\n        /* \"#utility.yul\":1870:1874   */\n      0x00\n        /* \"#utility.yul\":1908:1910   */\n      0x20\n        /* \"#utility.yul\":1897:1906   */\n      dup3\n        /* \"#utility.yul\":1893:1911   */\n      add\n        /* \"#utility.yul\":1885:1911   */\n      swap1\n      pop\n        /* \"#utility.yul\":1921:1992   */\n      tag_117\n        /* \"#utility.yul\":1989:1990   */\n      0x00\n        /* \"#utility.yul\":1978:1987   */\n      dup4\n        /* \"#utility.yul\":1974:1991   */\n      add\n        /* \"#utility.yul\":1965:1971   */\n      dup5\n        /* \"#utility.yul\":1921:1992   */\n      tag_81\n      jump\t// in\n    tag_117:\n        /* \"#utility.yul\":1777:1999   */\n      swap3\n      swap2\n      pop\n      pop\n      jump\t// out\n        /* \"#utility.yul\":2005:2185   */\n    tag_82:\n        /* \"#utility.yul\":2053:2130   */\n      0x4e487b7100000000000000000000000000000000000000000000000000000000\n        /* \"#utility.yul\":2050:2051   */\n      0x00\n        /* \"#utility.yul\":2043:2131   */\n      mstore\n        /* \"#utility.yul\":2150:2154   */\n      0x11\n        /* \"#utility.yul\":2147:2148   */\n      0x04\n        /* \"#utility.yul\":2140:2155   */\n      mstore\n        /* \"#utility.yul\":2174:2178   */\n      0x24\n        /* \"#utility.yul\":2171:2172   */\n      0x00\n        /* \"#utility.yul\":2164:2179   */\n      revert\n        /* \"#utility.yul\":2191:2385   */\n    tag_51:\n        /* \"#utility.yul\":2231:2235   */\n      0x00\n        /* \"#utility.yul\":2251:2271   */\n      tag_120\n        /* \"#utility.yul\":2269:2270   */\n      dup3\n        /* \"#utility.yul\":2251:2271   */\n      tag_80\n      jump\t// in\n    tag_120:\n        /* \"#utility.yul\":2246:2271   */\n      swap2\n      pop\n        /* \"#utility.yul\":2285:2305   */\n      tag_121\n        /* \"#utility.yul\":2303:2304   */\n      dup4\n        /* \"#utility.yul\":2285:2305   */\n      tag_80\n      jump\t// in\n    tag_121:\n        /* \"#utility.yul\":2280:2305   */\n      swap3\n      pop\n        /* \"#utility.yul\":2329:2330   */\n      dup3\n        /* \"#utility.yul\":2326:2327   */\n      dup3\n        /* \"#utility.yul\":2322:2331   */\n      sub\n        /* \"#utility.yul\":2314:2331   */\n      swap1\n      pop\n        /* \"#utility.yul\":2353:2354   */\n      dup2\n        /* \"#utility.yul\":2347:2351   */\n      dup2\n        /* \"#utility.yul\":2344:2355   */\n      gt\n        /* \"#utility.yul\":2341:2378   */\n      iszero\n      tag_122\n      jumpi\n        /* \"#utility.yul\":2358:2376   */\n      tag_123\n      tag_82\n      jump\t// in\n    tag_123:\n        /* \"#utility.yul\":2341:2378   */\n    tag_122:\n        /* \"#utility.yul\":2191:2385   */\n      swap3\n      swap2\n      pop\n      pop\n      jump\t// out\n        /* \"#utility.yul\":2391:2739   */\n    tag_53:\n        /* \"#utility.yul\":2431:2438   */\n      0x00\n        /* \"#utility.yul\":2454:2474   */\n      tag_125\n        /* \"#utility.yul\":2472:2473   */\n      dup3\n        /* \"#utility.yul\":2454:2474   */\n      tag_80\n      jump\t// in\n    tag_125:\n        /* \"#utility.yul\":2449:2474   */\n      swap2\n      pop\n        /* \"#utility.yul\":2488:2508   */\n      tag_126\n        /* \"#utility.yul\":2506:2507   */\n      dup4\n        /* \"#utility.yul\":2488:2508   */\n      tag_80\n      jump\t// in\n    tag_126:\n        /* \"#utility.yul\":2483:2508   */\n      swap3\n      pop\n        /* \"#utility.yul\":2676:2677   */\n      dup2\n        /* \"#utility.yul\":2608:2674   */\n      0xffffffffffffffffffffffffffffffffffffffffffffffffffffffffffffffff\n        /* \"#utility.yul\":2604:2678   */\n      div\n        /* \"#utility.yul\":2601:2602   */\n      dup4\n        /* \"#utility.yul\":2598:2679   */\n      gt\n        /* \"#utility.yul\":2593:2594   */\n      dup3\n        /* \"#utility.yul\":2586:2595   */\n      iszero\n        /* \"#utility.yul\":2579:2596   */\n      iszero\n        /* \"#utility.yul\":2575:2680   */\n      and\n        /* \"#utility.yul\":2572:2703   */\n      iszero\n      tag_127\n      jumpi\n        /* \"#utility.yul\":2683:2701   */\n      tag_128\n      tag_82\n      jump\t// in\n    tag_128:\n        /* \"#utility.yul\":2572:2703   */\n    tag_127:\n        /* \"#utility.yul\":2731:2732   */\n      dup3\n        /* \"#utility.yul\":2728:2729   */\n      dup3\n        /* \"#utility.yul\":2724:2733   */\n      mul\n        /* \"#utility.yul\":2713:2733   */\n      swap1\n      pop\n        /* \"#utility.yul\":2391:2739   */\n      swap3\n      swap2\n      pop\n      pop\n      jump\t// out\n        /* \"#utility.yul\":2745:2914   */\n    tag_83:\n        /* \"#utility.yul\":2829:2840   */\n      0x00\n        /* \"#utility.yul\":2863:2869   */\n      dup3\n        /* \"#utility.yul\":2858:2861   */\n      dup3\n        /* \"#utility.yul\":2851:2870   */\n      mstore\n        /* \"#utility.yul\":2903:2907   */\n      0x20\n        /* \"#utility.yul\":2898:2901   */\n      dup3\n        /* \"#utility.yul\":2894:2908   */\n      add\n        /* \"#utility.yul\":2879:2908   */\n      swap1\n      pop\n        /* \"#utility.yul\":2745:2914   */\n      swap3\n      swap2\n      pop\n      pop\n      jump\t// out\n        /* \"#utility.yul\":2920:3085   */\n    tag_84:\n        /* \"#utility.yul\":3060:3077   */\n      0x61756374696f6e20657870697265640000000000000000000000000000000000\n        /* \"#utility.yul\":3056:3057   */\n      0x00\n        /* \"#utility.yul\":3048:3054   */\n      dup3\n        /* \"#utility.yul\":3044:3058   */\n      add\n        /* \"#utility.yul\":3037:3078   */\n      mstore\n        /* \"#utility.yul\":2920:3085   */\n      pop\n      jump\t// out\n        /* \"#utility.yul\":3091:3457   */\n    tag_85:\n        /* \"#utility.yul\":3233:3236   */\n      0x00\n        /* \"#utility.yul\":3254:3321   */\n      tag_132\n        /* \"#utility.yul\":3318:3320   */\n      0x0f\n        /* \"#utility.yul\":3313:3316   */\n      dup4\n        /* \"#utility.yul\":3254:3321   */\n      tag_83\n      jump\t// in\n    tag_132:\n        /* \"#utility.yul\":3247:3321   */\n      swap2\n      pop\n        /* \"#utility.yul\":3330:3423   */\n      tag_133\n        /* \"#utility.yul\":3419:3422   */\n      dup3\n        /* \"#utility.yul\":3330:3423   */\n      tag_84\n      jump\t// in\n    tag_133:\n        /* \"#utility.yul\":3448:3450   */\n      0x20\n        /* \"#utility.yul\":3443:3446   */\n      dup3\n        /* \"#utility.yul\":3439:3451   */\n      add\n        /* \"#utility.yul\":3432:3451   */\n      swap1\n      pop\n        /* \"#utility.yul\":3091:3457   */\n      swap2\n      swap1\n      pop\n      jump\t// out\n        /* \"#utility.yul\":3463:3882   */\n    tag_58:\n        /* \"#utility.yul\":3629:3633   */\n      0x00\n        /* \"#utility.yul\":3667:3669   */\n      0x20\n        /* \"#utility.yul\":3656:3665   */\n      dup3\n        /* \"#utility.yul\":3652:3670   */\n      add\n        /* \"#utility.yul\":3644:3670   */\n      swap1\n      pop\n        /* \"#utility.yul\":3716:3725   */\n      dup2\n        /* \"#utility.yul\":3710:3714   */\n      dup2\n        /* \"#utility.yul\":3706:3726   */\n      sub\n        /* \"#utility.yul\":3702:3703   */\n      0x00\n        /* \"#utility.yul\":3691:3700   */\n      dup4\n        /* \"#utility.yul\":3687:3704   */\n      add\n        /* \"#utility.yul\":3680:3727   */\n      mstore\n        /* \"#utility.yul\":3744:3875   */\n      tag_135\n        /* \"#utility.yul\":3870:3874   */\n      dup2\n        /* \"#utility.yul\":3744:3875   */\n      tag_85\n      jump\t// in\n    tag_135:\n        /* \"#utility.yul\":3736:3875   */\n      swap1\n      pop\n        /* \"#utility.yul\":3463:3882   */\n      swap2\n      swap1\n      pop\n      jump\t// out\n        /* \"#utility.yul\":3888:4049   */\n    tag_86:\n        /* \"#utility.yul\":4028:4041   */\n      0x455448203c207072696365000000000000000000000000000000000000000000\n        /* \"#utility.yul\":4024:4025   */\n      0x00\n        /* \"#utility.yul\":4016:4022   */\n      dup3\n        /* \"#utility.yul\":4012:4026   */\n      add\n        /* \"#utility.yul\":4005:4042   */\n      mstore\n        /* \"#utility.yul\":3888:4049   */\n      pop\n      jump\t// out\n        /* \"#utility.yul\":4055:4421   */\n    tag_87:\n        /* \"#utility.yul\":4197:4200   */\n      0x00\n        /* \"#utility.yul\":4218:4285   */\n      tag_138\n        /* \"#utility.yul\":4282:4284   */\n      0x0b\n        /* \"#utility.yul\":4277:4280   */\n      dup4\n        /* \"#utility.yul\":4218:4285   */\n      tag_83\n      jump\t// in\n    tag_138:\n        /* \"#utility.yul\":4211:4285   */\n      swap2\n      pop\n        /* \"#utility.yul\":4294:4387   */\n      tag_139\n        /* \"#utility.yul\":4383:4386   */\n      dup3\n        /* \"#utility.yul\":4294:4387   */\n      tag_86\n      jump\t// in\n    tag_139:\n        /* \"#utility.yul\":4412:4414   */\n      0x20\n        /* \"#utility.yul\":4407:4410   */\n      dup3\n        /* \"#utility.yul\":4403:4415   */\n      add\n        /* \"#utility.yul\":4396:4415   */\n      swap1\n      pop\n        /* \"#utility.yul\":4055:4421   */\n      swap2\n      swap1\n      pop\n      jump\t// out\n        /* \"#utility.yul\":4427:4846   */\n    tag_62:\n        /* \"#utility.yul\":4593:4597   */\n      0x00\n        /* \"#utility.yul\":4631:4633   */\n      0x20\n        /* \"#utility.yul\":4620:4629   */\n      dup3\n        /* \"#utility.yul\":4616:4634   */\n      add\n        /* \"#utility.yul\":4608:4634   */\n      swap1\n      pop\n        /* \"#utility.yul\":4680:4689   */\n      dup2\n        /* \"#utility.yul\":4674:4678   */\n      dup2\n        /* \"#utility.yul\":4670:4690   */\n      sub\n        /* \"#utility.yul\":4666:4667   */\n      0x00\n        /* \"#utility.yul\":4655:4664   */\n      dup4\n        /* \"#utility.yul\":4651:4668   */\n      add\n        /* \"#utility.yul\":4644:4691   */\n      mstore\n        /* \"#utility.yul\":4708:4839   */\n      tag_141\n        /* \"#utility.yul\":4834:4838   */\n      dup2\n        /* \"#utility.yul\":4708:4839   */\n      tag_87\n      jump\t// in\n    tag_141:\n        /* \"#utility.yul\":4700:4839   */\n      swap1\n      pop\n        /* \"#utility.yul\":4427:4846   */\n      swap2\n      swap1\n      pop\n      jump\t// out\n        /* \"#utility.yul\":4852:4986   */\n    tag_88:\n        /* \"#utility.yul\":4910:4919   */\n      0x00\n        /* \"#utility.yul\":4943:4980   */\n      tag_143\n        /* \"#utility.yul\":4974:4979   */\n      dup3\n        /* \"#utility.yul\":4943:4980   */\n      tag_77\n      jump\t// in\n    tag_143:\n        /* \"#utility.yul\":4930:4980   */\n      swap1\n      pop\n        /* \"#utility.yul\":4852:4986   */\n      swap2\n      swap1\n      pop\n      jump\t// out\n        /* \"#utility.yul\":4992:5139   */\n    tag_89:\n        /* \"#utility.yul\":5087:5132   */\n      tag_145\n        /* \"#utility.yul\":5126:5131   */\n      dup2\n        /* \"#utility.yul\":5087:5132   */\n      tag_88\n      jump\t// in\n    tag_145:\n        /* \"#utility.yul\":5082:5085   */\n      dup3\n        /* \"#utility.yul\":5075:5133   */\n      mstore\n        /* \"#utility.yul\":4992:5139   */\n      pop\n      pop\n      jump\t// out\n        /* \"#utility.yul\":5145:5241   */\n    tag_90:\n        /* \"#utility.yul\":5182:5189   */\n      0x00\n        /* \"#utility.yul\":5211:5235   */\n      tag_147\n        /* \"#utility.yul\":5229:5234   */\n      dup3\n        /* \"#utility.yul\":5211:5235   */\n      tag_72\n      jump\t// in\n    tag_147:\n        /* \"#utility.yul\":5200:5235   */\n      swap1\n      pop\n        /* \"#utility.yul\":5145:5241   */\n      swap2\n      swap1\n      pop\n      jump\t// out\n        /* \"#utility.yul\":5247:5365   */\n    tag_91:\n        /* \"#utility.yul\":5334:5358   */\n      tag_149\n        /* \"#utility.yul\":5352:5357   */\n      dup2\n        /* \"#utility.yul\":5334:5358   */\n      tag_90\n      jump\t// in\n    tag_149:\n        /* \"#utility.yul\":5329:5332   */\n      dup3\n        /* \"#utility.yul\":5322:5359   */\n      mstore\n        /* \"#utility.yul\":5247:5365   */\n      pop\n      pop\n      jump\t// out\n        /* \"#utility.yul\":5371:5829   */\n    tag_64:\n        /* \"#utility.yul\":5528:5532   */\n      0x00\n        /* \"#utility.yul\":5566:5568   */\n      0x60\n        /* \"#utility.yul\":5555:5564   */\n      dup3\n        /* \"#utility.yul\":5551:5569   */\n      add\n        /* \"#utility.yul\":5543:5569   */\n      swap1\n      pop\n        /* \"#utility.yul\":5579:5658   */\n      tag_151\n        /* \"#utility.yul\":5655:5656   */\n      0x00\n        /* \"#utility.yul\":5644:5653   */\n      dup4\n        /* \"#utility.yul\":5640:5657   */\n      add\n        /* \"#utility.yul\":5631:5637   */\n      dup7\n        /* \"#utility.yul\":5579:5658   */\n      tag_89\n      jump\t// in\n    tag_151:\n        /* \"#utility.yul\":5668:5740   */\n      tag_152\n        /* \"#utility.yul\":5736:5738   */\n      0x20\n        /* \"#utility.yul\":5725:5734   */\n      dup4\n        /* \"#utility.yul\":5721:5739   */\n      add\n        /* \"#utility.yul\":5712:5718   */\n      dup6\n        /* \"#utility.yul\":5668:5740   */\n      tag_91\n      jump\t// in\n    tag_152:\n        /* \"#utility.yul\":5750:5822   */\n      tag_153\n        /* \"#utility.yul\":5818:5820   */\n      0x40\n        /* \"#utility.yul\":5807:5816   */\n      dup4\n        /* \"#utility.yul\":5803:5821   */\n      add\n        /* \"#utility.yul\":5794:5800   */\n      dup5\n        /* \"#utility.yul\":5750:5822   */\n      tag_81\n      jump\t// in\n    tag_153:\n        /* \"#utility.yul\":5371:5829   */\n      swap5\n      swap4\n      pop\n      pop\n      pop\n      pop\n      jump\t// out\n\n    auxdata: 0xa2646970667358221220911af6e54801b97571f1c92f5b0295965efff78d53fece2dfc6ed67cd8d106c564736f6c63430008100033\n}\n",
				"bytecode": {
					"linkReferences": {},
					"object": "6101606040523480156200001257600080fd5b5060405162000d2938038062000d298339818101604052810190620000389190620001e0565b3373ffffffffffffffffffffffffffffffffffffffff1660c08173ffffffffffffffffffffffffffffffffffffffff16815250508360e08181525050426101008181525050620d2f00426200008e919062000281565b6101208181525050826101408181525050620d2f0083620000b09190620002bc565b841015620000f5576040517f08c379a0000000000000000000000000000000000000000000000000000000008152600401620000ec906200037e565b60405180910390fd5b8173ffffffffffffffffffffffffffffffffffffffff1660808173ffffffffffffffffffffffffffffffffffffffff16815250508060a0818152505050505050620003a0565b600080fd5b6000819050919050565b620001558162000140565b81146200016157600080fd5b50565b60008151905062000175816200014a565b92915050565b600073ffffffffffffffffffffffffffffffffffffffff82169050919050565b6000620001a8826200017b565b9050919050565b620001ba816200019b565b8114620001c657600080fd5b50565b600081519050620001da81620001af565b92915050565b60008060008060808587031215620001fd57620001fc6200013b565b5b60006200020d8782880162000164565b9450506020620002208782880162000164565b93505060406200023387828801620001c9565b9250506060620002468782880162000164565b91505092959194509250565b7f4e487b7100000000000000000000000000000000000000000000000000000000600052601160045260246000fd5b60006200028e8262000140565b91506200029b8362000140565b9250828201905080821115620002b657620002b562000252565b5b92915050565b6000620002c98262000140565b9150620002d68362000140565b9250817fffffffffffffffffffffffffffffffffffffffffffffffffffffffffffffffff048311821515161562000312576200031162000252565b5b828202905092915050565b600082825260208201905092915050565b7f7374617274696e67207072696365203c206d696e000000000000000000000000600082015250565b6000620003666014836200031d565b915062000373826200032e565b602082019050919050565b60006020820190508181036000830152620003998162000357565b9050919050565b60805160a05160c05160e0516101005161012051610140516108f6620004336000396000818161028f015261057501526000818161023701526102ef01526000818161025e015261052d0152600081816102bd01526105510152600081816101ef015281816103dc01526104d00152600081816103fe015261050901526000818161021301526103a001526108f66000f3fe6080604052600436106100865760003560e01c8063a6f2ae3a11610059578063a6f2ae3a14610137578063c6bc518214610141578063c74465651461016c578063d6fbf20214610197578063e6c0e6d5146101c257610086565b806308551a531461008b57806347ccca02146100b65780638622a689146100e157806398d5fdca1461010c575b600080fd5b34801561009757600080fd5b506100a06101ed565b6040516100ad91906105d8565b60405180910390f35b3480156100c257600080fd5b506100cb610211565b6040516100d89190610652565b60405180910390f35b3480156100ed57600080fd5b506100f6610235565b6040516101039190610686565b60405180910390f35b34801561011857600080fd5b50610121610259565b60405161012e9190610686565b60405180910390f35b61013f6102ed565b005b34801561014d57600080fd5b50610156610507565b6040516101639190610686565b60405180910390f35b34801561017857600080fd5b5061018161052b565b60405161018e9190610686565b60405180910390f35b3480156101a357600080fd5b506101ac61054f565b6040516101b99190610686565b60405180910390f35b3480156101ce57600080fd5b506101d7610573565b6040516101e49190610686565b60405180910390f35b7f000000000000000000000000000000000000000000000000000000000000000081565b7f000000000000000000000000000000000000000000000000000000000000000081565b7f000000000000000000000000000000000000000000000000000000000000000081565b6000807f00000000000000000000000000000000000000000000000000000000000000004261028891906106d0565b90506000817f00000000000000000000000000000000000000000000000000000000000000006102b89190610704565b9050807f00000000000000000000000000000000000000000000000000000000000000006102e691906106d0565b9250505090565b7f0000000000000000000000000000000000000000000000000000000000000000421061034f576040517f08c379a0000000000000000000000000000000000000000000000000000000008152600401610346906107bb565b60405180910390fd5b6000610359610259565b90508034101561039e576040517f08c379a000000000000000000000000000000000000000000000000000000000815260040161039590610827565b60405180910390fd5b7f000000000000000000000000000000000000000000000000000000000000000073ffffffffffffffffffffffffffffffffffffffff166323b872dd7f0000000000000000000000000000000000000000000000000000000000000000337f00000000000000000000000000000000000000000000000000000000000000006040518463ffffffff1660e01b815260040161043b93929190610889565b600060405180830381600087803b15801561045557600080fd5b505af1158015610469573d6000803e3d6000fd5b505050506000813461047b91906106d0565b905060008111156104ce573373ffffffffffffffffffffffffffffffffffffffff166108fc829081150290604051600060405180830381858888f193505050501580156104cc573d6000803e3d6000fd5b505b7f000000000000000000000000000000000000000000000000000000000000000073ffffffffffffffffffffffffffffffffffffffff16ff5b7f000000000000000000000000000000000000000000000000000000000000000081565b7f000000000000000000000000000000000000000000000000000000000000000081565b7f000000000000000000000000000000000000000000000000000000000000000081565b7f000000000000000000000000000000000000000000000000000000000000000081565b600073ffffffffffffffffffffffffffffffffffffffff82169050919050565b60006105c282610597565b9050919050565b6105d2816105b7565b82525050565b60006020820190506105ed60008301846105c9565b92915050565b6000819050919050565b600061061861061361060e84610597565b6105f3565b610597565b9050919050565b600061062a826105fd565b9050919050565b600061063c8261061f565b9050919050565b61064c81610631565b82525050565b60006020820190506106676000830184610643565b92915050565b6000819050919050565b6106808161066d565b82525050565b600060208201905061069b6000830184610677565b92915050565b7f4e487b7100000000000000000000000000000000000000000000000000000000600052601160045260246000fd5b60006106db8261066d565b91506106e68361066d565b92508282039050818111156106fe576106fd6106a1565b5b92915050565b600061070f8261066d565b915061071a8361066d565b9250817fffffffffffffffffffffffffffffffffffffffffffffffffffffffffffffffff0483118215151615610753576107526106a1565b5b828202905092915050565b600082825260208201905092915050565b7f61756374696f6e20657870697265640000000000000000000000000000000000600082015250565b60006107a5600f8361075e565b91506107b08261076f565b602082019050919050565b600060208201905081810360008301526107d481610798565b9050919050565b7f455448203c207072696365000000000000000000000000000000000000000000600082015250565b6000610811600b8361075e565b915061081c826107db565b602082019050919050565b6000602082019050818103600083015261084081610804565b9050919050565b60006108528261061f565b9050919050565b61086281610847565b82525050565b600061087382610597565b9050919050565b61088381610868565b82525050565b600060608201905061089e6000830186610859565b6108ab602083018561087a565b6108b86040830184610677565b94935050505056fea2646970667358221220911af6e54801b97571f1c92f5b0295965efff78d53fece2dfc6ed67cd8d106c564736f6c63430008100033",
					"opcodes": "PUSH2 0x160 PUSH1 0x40 MSTORE CALLVALUE DUP1 ISZERO PUSH3 0x12 JUMPI PUSH1 0x0 DUP1 REVERT JUMPDEST POP PUSH1 0x40 MLOAD PUSH3 0xD29 CODESIZE SUB DUP1 PUSH3 0xD29 DUP4 CODECOPY DUP2 DUP2 ADD PUSH1 0x40 MSTORE DUP2 ADD SWAP1 PUSH3 0x38 SWAP2 SWAP1 PUSH3 0x1E0 JUMP JUMPDEST CALLER PUSH20 0xFFFFFFFFFFFFFFFFFFFFFFFFFFFFFFFFFFFFFFFF AND PUSH1 0xC0 DUP2 PUSH20 0xFFFFFFFFFFFFFFFFFFFFFFFFFFFFFFFFFFFFFFFF AND DUP2 MSTORE POP POP DUP4 PUSH1 0xE0 DUP2 DUP2 MSTORE POP POP TIMESTAMP PUSH2 0x100 DUP2 DUP2 MSTORE POP POP PUSH3 0xD2F00 TIMESTAMP PUSH3 0x8E SWAP2 SWAP1 PUSH3 0x281 JUMP JUMPDEST PUSH2 0x120 DUP2 DUP2 MSTORE POP POP DUP3 PUSH2 0x140 DUP2 DUP2 MSTORE POP POP PUSH3 0xD2F00 DUP4 PUSH3 0xB0 SWAP2 SWAP1 PUSH3 0x2BC JUMP JUMPDEST DUP5 LT ISZERO PUSH3 0xF5 JUMPI PUSH1 0x40 MLOAD PUSH32 0x8C379A000000000000000000000000000000000000000000000000000000000 DUP2 MSTORE PUSH1 0x4 ADD PUSH3 0xEC SWAP1 PUSH3 0x37E JUMP JUMPDEST PUSH1 0x40 MLOAD DUP1 SWAP2 SUB SWAP1 REVERT JUMPDEST DUP2 PUSH20 0xFFFFFFFFFFFFFFFFFFFFFFFFFFFFFFFFFFFFFFFF AND PUSH1 0x80 DUP2 PUSH20 0xFFFFFFFFFFFFFFFFFFFFFFFFFFFFFFFFFFFFFFFF AND DUP2 MSTORE POP POP DUP1 PUSH1 0xA0 DUP2 DUP2 MSTORE POP POP POP POP POP POP PUSH3 0x3A0 JUMP JUMPDEST PUSH1 0x0 DUP1 REVERT JUMPDEST PUSH1 0x0 DUP2 SWAP1 POP SWAP2 SWAP1 POP JUMP JUMPDEST PUSH3 0x155 DUP2 PUSH3 0x140 JUMP JUMPDEST DUP2 EQ PUSH3 0x161 JUMPI PUSH1 0x0 DUP1 REVERT JUMPDEST POP JUMP JUMPDEST PUSH1 0x0 DUP2 MLOAD SWAP1 POP PUSH3 0x175 DUP2 PUSH3 0x14A JUMP JUMPDEST SWAP3 SWAP2 POP POP JUMP JUMPDEST PUSH1 0x0 PUSH20 0xFFFFFFFFFFFFFFFFFFFFFFFFFFFFFFFFFFFFFFFF DUP3 AND SWAP1 POP SWAP2 SWAP1 POP JUMP JUMPDEST PUSH1 0x0 PUSH3 0x1A8 DUP3 PUSH3 0x17B JUMP JUMPDEST SWAP1 POP SWAP2 SWAP1 POP JUMP JUMPDEST PUSH3 0x1BA DUP2 PUSH3 0x19B JUMP JUMPDEST DUP2 EQ PUSH3 0x1C6 JUMPI PUSH1 0x0 DUP1 REVERT JUMPDEST POP JUMP JUMPDEST PUSH1 0x0 DUP2 MLOAD SWAP1 POP PUSH3 0x1DA DUP2 PUSH3 0x1AF JUMP JUMPDEST SWAP3 SWAP2 POP POP JUMP JUMPDEST PUSH1 0x0 DUP1 PUSH1 0x0 DUP1 PUSH1 0x80 DUP6 DUP8 SUB SLT ISZERO PUSH3 0x1FD JUMPI PUSH3 0x1FC PUSH3 0x13B JUMP JUMPDEST JUMPDEST PUSH1 0x0 PUSH3 0x20D DUP8 DUP3 DUP9 ADD PUSH3 0x164 JUMP JUMPDEST SWAP5 POP POP PUSH1 0x20 PUSH3 0x220 DUP8 DUP3 DUP9 ADD PUSH3 0x164 JUMP JUMPDEST SWAP4 POP POP PUSH1 0x40 PUSH3 0x233 DUP8 DUP3 DUP9 ADD PUSH3 0x1C9 JUMP JUMPDEST SWAP3 POP POP PUSH1 0x60 PUSH3 0x246 DUP8 DUP3 DUP9 ADD PUSH3 0x164 JUMP JUMPDEST SWAP2 POP POP SWAP3 SWAP6 SWAP2 SWAP5 POP SWAP3 POP JUMP JUMPDEST PUSH32 0x4E487B7100000000000000000000000000000000000000000000000000000000 PUSH1 0x0 MSTORE PUSH1 0x11 PUSH1 0x4 MSTORE PUSH1 0x24 PUSH1 0x0 REVERT JUMPDEST PUSH1 0x0 PUSH3 0x28E DUP3 PUSH3 0x140 JUMP JUMPDEST SWAP2 POP PUSH3 0x29B DUP4 PUSH3 0x140 JUMP JUMPDEST SWAP3 POP DUP3 DUP3 ADD SWAP1 POP DUP1 DUP3 GT ISZERO PUSH3 0x2B6 JUMPI PUSH3 0x2B5 PUSH3 0x252 JUMP JUMPDEST JUMPDEST SWAP3 SWAP2 POP POP JUMP JUMPDEST PUSH1 0x0 PUSH3 0x2C9 DUP3 PUSH3 0x140 JUMP JUMPDEST SWAP2 POP PUSH3 0x2D6 DUP4 PUSH3 0x140 JUMP JUMPDEST SWAP3 POP DUP2 PUSH32 0xFFFFFFFFFFFFFFFFFFFFFFFFFFFFFFFFFFFFFFFFFFFFFFFFFFFFFFFFFFFFFFFF DIV DUP4 GT DUP3 ISZERO ISZERO AND ISZERO PUSH3 0x312 JUMPI PUSH3 0x311 PUSH3 0x252 JUMP JUMPDEST JUMPDEST DUP3 DUP3 MUL SWAP1 POP SWAP3 SWAP2 POP POP JUMP JUMPDEST PUSH1 0x0 DUP3 DUP3 MSTORE PUSH1 0x20 DUP3 ADD SWAP1 POP SWAP3 SWAP2 POP POP JUMP JUMPDEST PUSH32 0x7374617274696E67207072696365203C206D696E000000000000000000000000 PUSH1 0x0 DUP3 ADD MSTORE POP JUMP JUMPDEST PUSH1 0x0 PUSH3 0x366 PUSH1 0x14 DUP4 PUSH3 0x31D JUMP JUMPDEST SWAP2 POP PUSH3 0x373 DUP3 PUSH3 0x32E JUMP JUMPDEST PUSH1 0x20 DUP3 ADD SWAP1 POP SWAP2 SWAP1 POP JUMP JUMPDEST PUSH1 0x0 PUSH1 0x20 DUP3 ADD SWAP1 POP DUP2 DUP2 SUB PUSH1 0x0 DUP4 ADD MSTORE PUSH3 0x399 DUP2 PUSH3 0x357 JUMP JUMPDEST SWAP1 POP SWAP2 SWAP1 POP JUMP JUMPDEST PUSH1 0x80 MLOAD PUSH1 0xA0 MLOAD PUSH1 0xC0 MLOAD PUSH1 0xE0 MLOAD PUSH2 0x100 MLOAD PUSH2 0x120 MLOAD PUSH2 0x140 MLOAD PUSH2 0x8F6 PUSH3 0x433 PUSH1 0x0 CODECOPY PUSH1 0x0 DUP2 DUP2 PUSH2 0x28F ADD MSTORE PUSH2 0x575 ADD MSTORE PUSH1 0x0 DUP2 DUP2 PUSH2 0x237 ADD MSTORE PUSH2 0x2EF ADD MSTORE PUSH1 0x0 DUP2 DUP2 PUSH2 0x25E ADD MSTORE PUSH2 0x52D ADD MSTORE PUSH1 0x0 DUP2 DUP2 PUSH2 0x2BD ADD MSTORE PUSH2 0x551 ADD MSTORE PUSH1 0x0 DUP2 DUP2 PUSH2 0x1EF ADD MSTORE DUP2 DUP2 PUSH2 0x3DC ADD MSTORE PUSH2 0x4D0 ADD MSTORE PUSH1 0x0 DUP2 DUP2 PUSH2 0x3FE ADD MSTORE PUSH2 0x509 ADD MSTORE PUSH1 0x0 DUP2 DUP2 PUSH2 0x213 ADD MSTORE PUSH2 0x3A0 ADD MSTORE PUSH2 0x8F6 PUSH1 0x0 RETURN INVALID PUSH1 0x80 PUSH1 0x40 MSTORE PUSH1 0x4 CALLDATASIZE LT PUSH2 0x86 JUMPI PUSH1 0x0 CALLDATALOAD PUSH1 0xE0 SHR DUP1 PUSH4 0xA6F2AE3A GT PUSH2 0x59 JUMPI DUP1 PUSH4 0xA6F2AE3A EQ PUSH2 0x137 JUMPI DUP1 PUSH4 0xC6BC5182 EQ PUSH2 0x141 JUMPI DUP1 PUSH4 0xC7446565 EQ PUSH2 0x16C JUMPI DUP1 PUSH4 0xD6FBF202 EQ PUSH2 0x197 JUMPI DUP1 PUSH4 0xE6C0E6D5 EQ PUSH2 0x1C2 JUMPI PUSH2 0x86 JUMP JUMPDEST DUP1 PUSH4 0x8551A53 EQ PUSH2 0x8B JUMPI DUP1 PUSH4 0x47CCCA02 EQ PUSH2 0xB6 JUMPI DUP1 PUSH4 0x8622A689 EQ PUSH2 0xE1 JUMPI DUP1 PUSH4 0x98D5FDCA EQ PUSH2 0x10C JUMPI JUMPDEST PUSH1 0x0 DUP1 REVERT JUMPDEST CALLVALUE DUP1 ISZERO PUSH2 0x97 JUMPI PUSH1 0x0 DUP1 REVERT JUMPDEST POP PUSH2 0xA0 PUSH2 0x1ED JUMP JUMPDEST PUSH1 0x40 MLOAD PUSH2 0xAD SWAP2 SWAP1 PUSH2 0x5D8 JUMP JUMPDEST PUSH1 0x40 MLOAD DUP1 SWAP2 SUB SWAP1 RETURN JUMPDEST CALLVALUE DUP1 ISZERO PUSH2 0xC2 JUMPI PUSH1 0x0 DUP1 REVERT JUMPDEST POP PUSH2 0xCB PUSH2 0x211 JUMP JUMPDEST PUSH1 0x40 MLOAD PUSH2 0xD8 SWAP2 SWAP1 PUSH2 0x652 JUMP JUMPDEST PUSH1 0x40 MLOAD DUP1 SWAP2 SUB SWAP1 RETURN JUMPDEST CALLVALUE DUP1 ISZERO PUSH2 0xED JUMPI PUSH1 0x0 DUP1 REVERT JUMPDEST POP PUSH2 0xF6 PUSH2 0x235 JUMP JUMPDEST PUSH1 0x40 MLOAD PUSH2 0x103 SWAP2 SWAP1 PUSH2 0x686 JUMP JUMPDEST PUSH1 0x40 MLOAD DUP1 SWAP2 SUB SWAP1 RETURN JUMPDEST CALLVALUE DUP1 ISZERO PUSH2 0x118 JUMPI PUSH1 0x0 DUP1 REVERT JUMPDEST POP PUSH2 0x121 PUSH2 0x259 JUMP JUMPDEST PUSH1 0x40 MLOAD PUSH2 0x12E SWAP2 SWAP1 PUSH2 0x686 JUMP JUMPDEST PUSH1 0x40 MLOAD DUP1 SWAP2 SUB SWAP1 RETURN JUMPDEST PUSH2 0x13F PUSH2 0x2ED JUMP JUMPDEST STOP JUMPDEST CALLVALUE DUP1 ISZERO PUSH2 0x14D JUMPI PUSH1 0x0 DUP1 REVERT JUMPDEST POP PUSH2 0x156 PUSH2 0x507 JUMP JUMPDEST PUSH1 0x40 MLOAD PUSH2 0x163 SWAP2 SWAP1 PUSH2 0x686 JUMP JUMPDEST PUSH1 0x40 MLOAD DUP1 SWAP2 SUB SWAP1 RETURN JUMPDEST CALLVALUE DUP1 ISZERO PUSH2 0x178 JUMPI PUSH1 0x0 DUP1 REVERT JUMPDEST POP PUSH2 0x181 PUSH2 0x52B JUMP JUMPDEST PUSH1 0x40 MLOAD PUSH2 0x18E SWAP2 SWAP1 PUSH2 0x686 JUMP JUMPDEST PUSH1 0x40 MLOAD DUP1 SWAP2 SUB SWAP1 RETURN JUMPDEST CALLVALUE DUP1 ISZERO PUSH2 0x1A3 JUMPI PUSH1 0x0 DUP1 REVERT JUMPDEST POP PUSH2 0x1AC PUSH2 0x54F JUMP JUMPDEST PUSH1 0x40 MLOAD PUSH2 0x1B9 SWAP2 SWAP1 PUSH2 0x686 JUMP JUMPDEST PUSH1 0x40 MLOAD DUP1 SWAP2 SUB SWAP1 RETURN JUMPDEST CALLVALUE DUP1 ISZERO PUSH2 0x1CE JUMPI PUSH1 0x0 DUP1 REVERT JUMPDEST POP PUSH2 0x1D7 PUSH2 0x573 JUMP JUMPDEST PUSH1 0x40 MLOAD PUSH2 0x1E4 SWAP2 SWAP1 PUSH2 0x686 JUMP JUMPDEST PUSH1 0x40 MLOAD DUP1 SWAP2 SUB SWAP1 RETURN JUMPDEST PUSH32 0x0 DUP2 JUMP JUMPDEST PUSH32 0x0 DUP2 JUMP JUMPDEST PUSH32 0x0 DUP2 JUMP JUMPDEST PUSH1 0x0 DUP1 PUSH32 0x0 TIMESTAMP PUSH2 0x288 SWAP2 SWAP1 PUSH2 0x6D0 JUMP JUMPDEST SWAP1 POP PUSH1 0x0 DUP2 PUSH32 0x0 PUSH2 0x2B8 SWAP2 SWAP1 PUSH2 0x704 JUMP JUMPDEST SWAP1 POP DUP1 PUSH32 0x0 PUSH2 0x2E6 SWAP2 SWAP1 PUSH2 0x6D0 JUMP JUMPDEST SWAP3 POP POP POP SWAP1 JUMP JUMPDEST PUSH32 0x0 TIMESTAMP LT PUSH2 0x34F JUMPI PUSH1 0x40 MLOAD PUSH32 0x8C379A000000000000000000000000000000000000000000000000000000000 DUP2 MSTORE PUSH1 0x4 ADD PUSH2 0x346 SWAP1 PUSH2 0x7BB JUMP JUMPDEST PUSH1 0x40 MLOAD DUP1 SWAP2 SUB SWAP1 REVERT JUMPDEST PUSH1 0x0 PUSH2 0x359 PUSH2 0x259 JUMP JUMPDEST SWAP1 POP DUP1 CALLVALUE LT ISZERO PUSH2 0x39E JUMPI PUSH1 0x40 MLOAD PUSH32 0x8C379A000000000000000000000000000000000000000000000000000000000 DUP2 MSTORE PUSH1 0x4 ADD PUSH2 0x395 SWAP1 PUSH2 0x827 JUMP JUMPDEST PUSH1 0x40 MLOAD DUP1 SWAP2 SUB SWAP1 REVERT JUMPDEST PUSH32 0x0 PUSH20 0xFFFFFFFFFFFFFFFFFFFFFFFFFFFFFFFFFFFFFFFF AND PUSH4 0x23B872DD PUSH32 0x0 CALLER PUSH32 0x0 PUSH1 0x40 MLOAD DUP5 PUSH4 0xFFFFFFFF AND PUSH1 0xE0 SHL DUP2 MSTORE PUSH1 0x4 ADD PUSH2 0x43B SWAP4 SWAP3 SWAP2 SWAP1 PUSH2 0x889 JUMP JUMPDEST PUSH1 0x0 PUSH1 0x40 MLOAD DUP1 DUP4 SUB DUP2 PUSH1 0x0 DUP8 DUP1 EXTCODESIZE ISZERO DUP1 ISZERO PUSH2 0x455 JUMPI PUSH1 0x0 DUP1 REVERT JUMPDEST POP GAS CALL ISZERO DUP1 ISZERO PUSH2 0x469 JUMPI RETURNDATASIZE PUSH1 0x0 DUP1 RETURNDATACOPY RETURNDATASIZE PUSH1 0x0 REVERT JUMPDEST POP POP POP POP PUSH1 0x0 DUP2 CALLVALUE PUSH2 0x47B SWAP2 SWAP1 PUSH2 0x6D0 JUMP JUMPDEST SWAP1 POP PUSH1 0x0 DUP2 GT ISZERO PUSH2 0x4CE JUMPI CALLER PUSH20 0xFFFFFFFFFFFFFFFFFFFFFFFFFFFFFFFFFFFFFFFF AND PUSH2 0x8FC DUP3 SWAP1 DUP2 ISZERO MUL SWAP1 PUSH1 0x40 MLOAD PUSH1 0x0 PUSH1 0x40 MLOAD DUP1 DUP4 SUB DUP2 DUP6 DUP9 DUP9 CALL SWAP4 POP POP POP POP ISZERO DUP1 ISZERO PUSH2 0x4CC JUMPI RETURNDATASIZE PUSH1 0x0 DUP1 RETURNDATACOPY RETURNDATASIZE PUSH1 0x0 REVERT JUMPDEST POP JUMPDEST PUSH32 0x0 PUSH20 0xFFFFFFFFFFFFFFFFFFFFFFFFFFFFFFFFFFFFFFFF AND SELFDESTRUCT JUMPDEST PUSH32 0x0 DUP2 JUMP JUMPDEST PUSH32 0x0 DUP2 JUMP JUMPDEST PUSH32 0x0 DUP2 JUMP JUMPDEST PUSH32 0x0 DUP2 JUMP JUMPDEST PUSH1 0x0 PUSH20 0xFFFFFFFFFFFFFFFFFFFFFFFFFFFFFFFFFFFFFFFF DUP3 AND SWAP1 POP SWAP2 SWAP1 POP JUMP JUMPDEST PUSH1 0x0 PUSH2 0x5C2 DUP3 PUSH2 0x597 JUMP JUMPDEST SWAP1 POP SWAP2 SWAP1 POP JUMP JUMPDEST PUSH2 0x5D2 DUP2 PUSH2 0x5B7 JUMP JUMPDEST DUP3 MSTORE POP POP JUMP JUMPDEST PUSH1 0x0 PUSH1 0x20 DUP3 ADD SWAP1 POP PUSH2 0x5ED PUSH1 0x0 DUP4 ADD DUP5 PUSH2 0x5C9 JUMP JUMPDEST SWAP3 SWAP2 POP POP JUMP JUMPDEST PUSH1 0x0 DUP2 SWAP1 POP SWAP2 SWAP1 POP JUMP JUMPDEST PUSH1 0x0 PUSH2 0x618 PUSH2 0x613 PUSH2 0x60E DUP5 PUSH2 0x597 JUMP JUMPDEST PUSH2 0x5F3 JUMP JUMPDEST PUSH2 0x597 JUMP JUMPDEST SWAP1 POP SWAP2 SWAP1 POP JUMP JUMPDEST PUSH1 0x0 PUSH2 0x62A DUP3 PUSH2 0x5FD JUMP JUMPDEST SWAP1 POP SWAP2 SWAP1 POP JUMP JUMPDEST PUSH1 0x0 PUSH2 0x63C DUP3 PUSH2 0x61F JUMP JUMPDEST SWAP1 POP SWAP2 SWAP1 POP JUMP JUMPDEST PUSH2 0x64C DUP2 PUSH2 0x631 JUMP JUMPDEST DUP3 MSTORE POP POP JUMP JUMPDEST PUSH1 0x0 PUSH1 0x20 DUP3 ADD SWAP1 POP PUSH2 0x667 PUSH1 0x0 DUP4 ADD DUP5 PUSH2 0x643 JUMP JUMPDEST SWAP3 SWAP2 POP POP JUMP JUMPDEST PUSH1 0x0 DUP2 SWAP1 POP SWAP2 SWAP1 POP JUMP JUMPDEST PUSH2 0x680 DUP2 PUSH2 0x66D JUMP JUMPDEST DUP3 MSTORE POP POP JUMP JUMPDEST PUSH1 0x0 PUSH1 0x20 DUP3 ADD SWAP1 POP PUSH2 0x69B PUSH1 0x0 DUP4 ADD DUP5 PUSH2 0x677 JUMP JUMPDEST SWAP3 SWAP2 POP POP JUMP JUMPDEST PUSH32 0x4E487B7100000000000000000000000000000000000000000000000000000000 PUSH1 0x0 MSTORE PUSH1 0x11 PUSH1 0x4 MSTORE PUSH1 0x24 PUSH1 0x0 REVERT JUMPDEST PUSH1 0x0 PUSH2 0x6DB DUP3 PUSH2 0x66D JUMP JUMPDEST SWAP2 POP PUSH2 0x6E6 DUP4 PUSH2 0x66D JUMP JUMPDEST SWAP3 POP DUP3 DUP3 SUB SWAP1 POP DUP2 DUP2 GT ISZERO PUSH2 0x6FE JUMPI PUSH2 0x6FD PUSH2 0x6A1 JUMP JUMPDEST JUMPDEST SWAP3 SWAP2 POP POP JUMP JUMPDEST PUSH1 0x0 PUSH2 0x70F DUP3 PUSH2 0x66D JUMP JUMPDEST SWAP2 POP PUSH2 0x71A DUP4 PUSH2 0x66D JUMP JUMPDEST SWAP3 POP DUP2 PUSH32 0xFFFFFFFFFFFFFFFFFFFFFFFFFFFFFFFFFFFFFFFFFFFFFFFFFFFFFFFFFFFFFFFF DIV DUP4 GT DUP3 ISZERO ISZERO AND ISZERO PUSH2 0x753 JUMPI PUSH2 0x752 PUSH2 0x6A1 JUMP JUMPDEST JUMPDEST DUP3 DUP3 MUL SWAP1 POP SWAP3 SWAP2 POP POP JUMP JUMPDEST PUSH1 0x0 DUP3 DUP3 MSTORE PUSH1 0x20 DUP3 ADD SWAP1 POP SWAP3 SWAP2 POP POP JUMP JUMPDEST PUSH32 0x61756374696F6E20657870697265640000000000000000000000000000000000 PUSH1 0x0 DUP3 ADD MSTORE POP JUMP JUMPDEST PUSH1 0x0 PUSH2 0x7A5 PUSH1 0xF DUP4 PUSH2 0x75E JUMP JUMPDEST SWAP2 POP PUSH2 0x7B0 DUP3 PUSH2 0x76F JUMP JUMPDEST PUSH1 0x20 DUP3 ADD SWAP1 POP SWAP2 SWAP1 POP JUMP JUMPDEST PUSH1 0x0 PUSH1 0x20 DUP3 ADD SWAP1 POP DUP2 DUP2 SUB PUSH1 0x0 DUP4 ADD MSTORE PUSH2 0x7D4 DUP2 PUSH2 0x798 JUMP JUMPDEST SWAP1 POP SWAP2 SWAP1 POP JUMP JUMPDEST PUSH32 0x455448203C207072696365000000000000000000000000000000000000000000 PUSH1 0x0 DUP3 ADD MSTORE POP JUMP JUMPDEST PUSH1 0x0 PUSH2 0x811 PUSH1 0xB DUP4 PUSH2 0x75E JUMP JUMPDEST SWAP2 POP PUSH2 0x81C DUP3 PUSH2 0x7DB JUMP JUMPDEST PUSH1 0x20 DUP3 ADD SWAP1 POP SWAP2 SWAP1 POP JUMP JUMPDEST PUSH1 0x0 PUSH1 0x20 DUP3 ADD SWAP1 POP DUP2 DUP2 SUB PUSH1 0x0 DUP4 ADD MSTORE PUSH2 0x840 DUP2 PUSH2 0x804 JUMP JUMPDEST SWAP1 POP SWAP2 SWAP1 POP JUMP JUMPDEST PUSH1 0x0 PUSH2 0x852 DUP3 PUSH2 0x61F JUMP JUMPDEST SWAP1 POP SWAP2 SWAP1 POP JUMP JUMPDEST PUSH2 0x862 DUP2 PUSH2 0x847 JUMP JUMPDEST DUP3 MSTORE POP POP JUMP JUMPDEST PUSH1 0x0 PUSH2 0x873 DUP3 PUSH2 0x597 JUMP JUMPDEST SWAP1 POP SWAP2 SWAP1 POP JUMP JUMPDEST PUSH2 0x883 DUP2 PUSH2 0x868 JUMP JUMPDEST DUP3 MSTORE POP POP JUMP JUMPDEST PUSH1 0x0 PUSH1 0x60 DUP3 ADD SWAP1 POP PUSH2 0x89E PUSH1 0x0 DUP4 ADD DUP7 PUSH2 0x859 JUMP JUMPDEST PUSH2 0x8AB PUSH1 0x20 DUP4 ADD DUP6 PUSH2 0x87A JUMP JUMPDEST PUSH2 0x8B8 PUSH1 0x40 DUP4 ADD DUP5 PUSH2 0x677 JUMP JUMPDEST SWAP5 SWAP4 POP POP POP POP JUMP INVALID LOG2 PUSH5 0x6970667358 0x22 SLT KECCAK256 SWAP2 BYTE 0xF6 0xE5 BASEFEE ADD 0xB9 PUSH22 0x71F1C92F5B0295965EFFF78D53FECE2DFC6ED67CD8D1 MOD 0xC5 PUSH5 0x736F6C6343 STOP ADDMOD LT STOP CALLER "
				},
				"gasEstimates": {
					"creation": {
						"codeDepositCost": "458800",
						"executionCost": "infinite",
						"totalCost": "infinite"
					},
					"external": {
						"buy()": "infinite",
						"discountRate()": "infinite",
						"expiresAt()": "infinite",
						"getPrice()": "infinite",
						"nft()": "infinite",
						"nftId()": "infinite",
						"seller()": "infinite",
						"startAt()": "infinite",
						"startingPrice()": "infinite"
					}
				},
				"methodIdentifiers": {
					"buy()": "a6f2ae3a",
					"discountRate()": "e6c0e6d5",
					"expiresAt()": "8622a689",
					"getPrice()": "98d5fdca",
					"nft()": "47ccca02",
					"nftId()": "c6bc5182",
					"seller()": "08551a53",
					"startAt()": "c7446565",
					"startingPrice()": "d6fbf202"
				}
			},
			"storageLayout": {
				"storage": [],
				"types": null
			},
			"userdoc": {
				"kind": "user",
				"methods": {},
				"version": 1
			}
		}
	}
}